{
  "contractName": "ReliefERC20",
  "abi": [
    {
      "constant": true,
      "inputs": [
        {
          "name": "",
          "type": "bytes32"
        }
      ],
      "name": "user",
      "outputs": [
        {
          "name": "name",
          "type": "string"
        },
        {
          "name": "contactDetail",
          "type": "string"
        },
        {
          "name": "location",
          "type": "string"
        },
        {
          "name": "no",
          "type": "uint256"
        },
        {
          "name": "state",
          "type": "bool"
        }
      ],
      "payable": false,
      "stateMutability": "view",
      "type": "function"
    },
    {
      "constant": true,
      "inputs": [
        {
          "name": "",
          "type": "uint256"
        }
      ],
      "name": "coutUsermap",
      "outputs": [
        {
          "name": "",
          "type": "bytes32"
        }
      ],
      "payable": false,
      "stateMutability": "view",
      "type": "function"
    },
    {
      "constant": true,
      "inputs": [
        {
          "name": "",
          "type": "uint256"
        }
      ],
      "name": "coutDistmap",
      "outputs": [
        {
          "name": "",
          "type": "address"
        }
      ],
      "payable": false,
      "stateMutability": "view",
      "type": "function"
    },
    {
      "constant": true,
      "inputs": [
        {
          "name": "",
          "type": "uint256"
        }
      ],
      "name": "item",
      "outputs": [
        {
          "name": "itemName",
          "type": "string"
        },
        {
          "name": "itemDescription",
          "type": "string"
        },
        {
          "name": "state",
          "type": "bool"
        },
        {
          "name": "isCentral",
          "type": "bool"
        }
      ],
      "payable": false,
      "stateMutability": "view",
      "type": "function"
    },
    {
      "constant": true,
      "inputs": [],
      "name": "owner",
      "outputs": [
        {
          "name": "",
          "type": "address"
        }
      ],
      "payable": false,
      "stateMutability": "view",
      "type": "function"
    },
    {
      "constant": true,
      "inputs": [
        {
          "name": "",
          "type": "bytes32"
        },
        {
          "name": "",
          "type": "uint256"
        }
      ],
      "name": "balanceUser",
      "outputs": [
        {
          "name": "",
          "type": "uint256"
        }
      ],
      "payable": false,
      "stateMutability": "view",
      "type": "function"
    },
    {
      "constant": true,
      "inputs": [
        {
          "name": "",
          "type": "address"
        },
        {
          "name": "",
          "type": "uint256"
        }
      ],
      "name": "balanceDist",
      "outputs": [
        {
          "name": "",
          "type": "uint256"
        }
      ],
      "payable": false,
      "stateMutability": "view",
      "type": "function"
    },
    {
      "constant": false,
      "inputs": [
        {
          "name": "newOwner",
          "type": "address"
        }
      ],
      "name": "transferOwnership",
      "outputs": [],
      "payable": false,
      "stateMutability": "nonpayable",
      "type": "function"
    },
    {
      "constant": true,
      "inputs": [
        {
          "name": "",
          "type": "address"
        }
      ],
      "name": "dist",
      "outputs": [
        {
          "name": "name",
          "type": "string"
        },
        {
          "name": "contactDetail",
          "type": "string"
        },
        {
          "name": "location",
          "type": "string"
        },
        {
          "name": "no",
          "type": "uint256"
        },
        {
          "name": "state",
          "type": "bool"
        }
      ],
      "payable": false,
      "stateMutability": "view",
      "type": "function"
    },
    {
      "anonymous": false,
      "inputs": [
        {
          "indexed": true,
          "name": "previousOwner",
          "type": "address"
        },
        {
          "indexed": true,
          "name": "newOwner",
          "type": "address"
        }
      ],
      "name": "OwnershipTransferred",
      "type": "event"
    },
    {
      "constant": false,
      "inputs": [
        {
          "name": "_userAddr",
          "type": "address"
        },
        {
          "name": "_campName",
          "type": "string"
        },
        {
          "name": "_location",
          "type": "string"
        },
        {
          "name": "_ContactDetails",
          "type": "string"
        }
      ],
      "name": "addCamp",
      "outputs": [],
      "payable": false,
      "stateMutability": "nonpayable",
      "type": "function"
    },
    {
      "constant": false,
      "inputs": [
        {
          "name": "_userAddr",
          "type": "bytes32"
        },
        {
          "name": "_name",
          "type": "string"
        },
        {
          "name": "_location",
          "type": "string"
        },
        {
          "name": "_ContactDetails",
          "type": "string"
        }
      ],
      "name": "addUser",
      "outputs": [],
      "payable": false,
      "stateMutability": "nonpayable",
      "type": "function"
    },
    {
      "constant": false,
      "inputs": [
        {
          "name": "_item",
          "type": "string"
        },
        {
          "name": "_itemDesc",
          "type": "string"
        },
        {
          "name": "_isCentral",
          "type": "bool"
        }
      ],
      "name": "addItem",
      "outputs": [],
      "payable": false,
      "stateMutability": "nonpayable",
      "type": "function"
    },
    {
      "constant": false,
      "inputs": [
        {
          "name": "_uid",
          "type": "bytes32"
        }
      ],
      "name": "removeUser",
      "outputs": [],
      "payable": false,
      "stateMutability": "nonpayable",
      "type": "function"
    },
    {
      "constant": false,
      "inputs": [
        {
          "name": "_itemid",
          "type": "uint256"
        },
        {
          "name": "_distid",
          "type": "uint256"
        },
        {
          "name": "qty",
          "type": "uint256"
        }
      ],
      "name": "mintItemAdmin",
      "outputs": [],
      "payable": false,
      "stateMutability": "nonpayable",
      "type": "function"
    },
    {
      "constant": false,
      "inputs": [
        {
          "name": "_itemid",
          "type": "uint256"
        },
        {
          "name": "qty",
          "type": "uint256"
        }
      ],
      "name": "mintItemDist",
      "outputs": [],
      "payable": false,
      "stateMutability": "nonpayable",
      "type": "function"
    },
    {
      "constant": false,
      "inputs": [
        {
          "name": "_itemid",
          "type": "uint256"
        },
        {
          "name": "qty",
          "type": "uint256"
        },
        {
          "name": "userID",
          "type": "uint256"
        }
      ],
      "name": "transfer",
      "outputs": [],
      "payable": false,
      "stateMutability": "nonpayable",
      "type": "function"
    }
  ],
  "bytecode": "0x608060405260008054600160a060020a0319163317905561112f806100256000396000f3006080604052600436106100e55763ffffffff7c01000000000000000000000000000000000000000000000000000000006000350416630dfb661581146100ea57806337050b7a1461025857806348b4b80f146102785780635a9054d8146102a25780637effce9d146102ba57806384fba034146102d5578063898e6219146103095780638da5cb5b1461041157806390dd26271461042657806392f32a2414610444578063c784a2c31461045f578063d20ba59d14610483578063d8e640b914610566578063e990e4cd14610601578063f2fde38b146106db578063fafcdc34146106fc575b600080fd5b3480156100f657600080fd5b5061010260043561071d565b6040518080602001806020018060200186815260200185151515158152602001848103845289818151815260200191508051906020019080838360005b8381101561015757818101518382015260200161013f565b50505050905090810190601f1680156101845780820380516001836020036101000a031916815260200191505b5084810383528851815288516020918201918a019080838360005b838110156101b757818101518382015260200161019f565b50505050905090810190601f1680156101e45780820380516001836020036101000a031916815260200191505b50848103825287518152875160209182019189019080838360005b838110156102175781810151838201526020016101ff565b50505050905090810190601f1680156102445780820380516001836020036101000a031916815260200191505b509850505050505050505060405180910390f35b34801561026457600080fd5b506102766004356024356044356108fe565b005b34801561028457600080fd5b50610290600435610971565b60408051918252519081900360200190f35b3480156102ae57600080fd5b50610276600435610983565b3480156102c657600080fd5b506102766004356024356109b5565b3480156102e157600080fd5b506102ed600435610a1f565b60408051600160a060020a039092168252519081900360200190f35b34801561031557600080fd5b50610321600435610a3a565b6040805183151591810191909152811515606082015260808082528551908201528451819060208083019160a084019189019080838360005b8381101561037257818101518382015260200161035a565b50505050905090810190601f16801561039f5780820380516001836020036101000a031916815260200191505b50838103825286518152865160209182019188019080838360005b838110156103d25781810151838201526020016103ba565b50505050905090810190601f1680156103ff5780820380516001836020036101000a031916815260200191505b50965050505050505060405180910390f35b34801561041d57600080fd5b506102ed610b8b565b34801561043257600080fd5b50610276600435602435604435610b9a565b34801561045057600080fd5b50610290600435602435610c8f565b34801561046b57600080fd5b50610290600160a060020a0360043516602435610cac565b34801561048f57600080fd5b5060408051602060046024803582810135601f8101859004850286018501909652858552610276958335600160a060020a031695369560449491939091019190819084018382808284375050604080516020601f89358b018035918201839004830284018301909452808352979a99988101979196509182019450925082915084018382808284375050604080516020601f89358b018035918201839004830284018301909452808352979a999881019791965091820194509250829150840183828082843750949750610cc99650505050505050565b34801561057257600080fd5b506040805160206004803580820135601f810184900484028501840190955284845261027694369492936024939284019190819084018382808284375050604080516020601f89358b018035918201839004830284018301909452808352979a999881019791965091820194509250829150840183828082843750949750505050913515159250610dca915050565b34801561060d57600080fd5b5060408051602060046024803582810135601f810185900485028601850190965285855261027695833595369560449491939091019190819084018382808284375050604080516020601f89358b018035918201839004830284018301909452808352979a99988101979196509182019450925082915084018382808284375050604080516020601f89358b018035918201839004830284018301909452808352979a999881019791965091820194509250829150840183828082843750949750610e779650505050505050565b3480156106e757600080fd5b50610276600160a060020a0360043516610f40565b34801561070857600080fd5b50610102600160a060020a0360043516610fd4565b60066020908152600091825260409182902080548351601f600260001961010060018616150201909316929092049182018490048402810184019094528084529092918391908301828280156107b45780601f10610789576101008083540402835291602001916107b4565b820191906000526020600020905b81548152906001019060200180831161079757829003601f168201915b505050505090806001018054600181600116156101000203166002900480601f0160208091040260200160405190810160405280929190818152602001828054600181600116156101000203166002900480156108525780601f1061082757610100808354040283529160200191610852565b820191906000526020600020905b81548152906001019060200180831161083557829003601f168201915b50505060028085018054604080516020601f60001961010060018716150201909416959095049283018590048502810185019091528181529596959450909250908301828280156108e45780601f106108b9576101008083540402835291602001916108e4565b820191906000526020600020905b8154815290600101906020018083116108c757829003601f168201915b50505050600383015460049093015491929160ff16905085565b600054600160a060020a0316331461091557600080fd5b600083815260086020526040902060020154839060ff61010090910416151560011461094057600080fd5b50600091825260056020908152604080842054600160a060020a031684526009825280842094845293905291902055565b60046020526000908152604090205481565b600054600160a060020a0316331461099a57600080fd5b6000908152600660205260409020600401805460ff19169055565b3360009081526007602052604090206004015460ff1615156001146109d957600080fd5b6000828152600860205260409020600201548290610100900460ff16156109ff57600080fd5b503360009081526009602090815260408083209483529390529190912055565b600560205260009081526040902054600160a060020a031681565b60086020908152600091825260409182902080548351601f60026000196101006001861615020190931692909204918201849004840281018401909452808452909291839190830182828015610ad15780601f10610aa657610100808354040283529160200191610ad1565b820191906000526020600020905b815481529060010190602001808311610ab457829003601f168201915b505050505090806001018054600181600116156101000203166002900480601f016020809104026020016040519081016040528092919081815260200182805460018160011615610100020316600290048015610b6f5780601f10610b4457610100808354040283529160200191610b6f565b820191906000526020600020905b815481529060010190602001808311610b5257829003601f168201915b5050506002909301549192505060ff8082169161010090041684565b600054600160a060020a031681565b3360009081526007602052604090206004015460ff161515600114610bbe57600080fd5b6000818152600460208181526040808420548085526006909252909220015460ff161515600114610bee57600080fd5b336000908152600960209081526040808320878452909152902054610c19908463ffffffff61104016565b33600090815260096020908152604080832088845282528083209390935584825260048152828220548252600a815282822087835290522054610c62908463ffffffff61105216565b6000928352600460209081526040808520548552600a825280852096855295905293909120929092555050565b600a60209081526000928352604080842090915290825290205481565b600960209081526000928352604080842090915290825290205481565b600054600160a060020a03163314610ce057600080fd5b6002805460010190556003546000908152600560209081526040808320805473ffffffffffffffffffffffffffffffffffffffff1916600160a060020a0389169081179091558352600782529091208451610d3d92860190611068565b50600160a060020a03841660009081526007602090815260409091208251610d6d92600190920191840190611068565b50600160a060020a03841660009081526007602090815260409091208351610d9d92600290920191850190611068565b505050600160a060020a039091166000908152600760205260409020600401805460ff1916600117905550565b600054600160a060020a03163314610de157600080fd5b6001805481019081905560009081526008602090815260409091208451610e0a92860190611068565b506001805460009081526008602090815260409091208451610e33939190910191850190611068565b50600180546000908152600860205260408082206002908101805460ff1916851790559254825290200180549115156101000261ff00199092169190911790555050565b3360009081526007602052604090206004015460ff161515600114610e9b57600080fd5b60038054600101908190556000908152600460209081526040808320879055868352600682529091208451610ed292860190611068565b5060008481526006602090815260409091208251610ef892600190920191840190611068565b5060008481526006602090815260409091208351610f1e92600290920191850190611068565b505050600091825250600660205260409020600401805460ff19166001179055565b600054600160a060020a03163314610f5757600080fd5b600160a060020a0381161515610f6c57600080fd5b60008054604051600160a060020a03808516939216917f8be0079c531659141344cd1fd0a4f28419497f9722a3daafe3b4186f6b6457e091a36000805473ffffffffffffffffffffffffffffffffffffffff1916600160a060020a0392909216919091179055565b60076020908152600091825260409182902080548351601f600260001961010060018616150201909316929092049182018490048402810184019094528084529092918391908301828280156107b45780601f10610789576101008083540402835291602001916107b4565b60008282111561104c57fe5b50900390565b60008282018381101561106157fe5b9392505050565b828054600181600116156101000203166002900490600052602060002090601f016020900481019282601f106110a957805160ff19168380011785556110d6565b828001600101855582156110d6579182015b828111156110d65782518255916020019190600101906110bb565b506110e29291506110e6565b5090565b61110091905b808211156110e257600081556001016110ec565b905600a165627a7a72305820239407ba249efddb2fbe48b5f9dadc4530f32a5764cdfd0d7ac694aea79302f80029",
  "source": "pragma solidity ^0.4.18;\n\n// File: srcContracts/Ownable.sol\n\n/**\n * @title Ownable\n * @dev The Ownable contract has an owner address, and provides basic authorization control\n * functions, this simplifies the implementation of \"user permissions\".\n */\ncontract Ownable {\n  address public owner;\n\n  event OwnershipTransferred(address indexed previousOwner, address indexed newOwner);\n\n\n  /**\n   * @dev The Ownable constructor sets the original `owner` of the contract to the sender\n   * account.\n   */\n  constructor ()\n    public\n  {\n    owner = msg.sender;\n  }\n\n  /**\n   * @dev Throws if called by any account other than the owner.\n   */\n  modifier onlyOwner() {\n    require(msg.sender == owner);\n    _;\n  }\n\n  /**\n   * @dev Allows the current owner to transfer control of the contract to a newOwner.\n   * @param newOwner The address to transfer ownership to.\n   */\n  function transferOwnership(address newOwner) public onlyOwner {\n    require(newOwner != address(0));\n    emit OwnershipTransferred(owner, newOwner);\n    owner = newOwner;\n  }\n\n}\n\n// File: srcContracts/SafeMath.sol\n\nlibrary SafeMath {\n\n    function mul(uint256 a, uint256 b) internal pure returns (uint256) {\n        uint256 c = a * b;\n\n        assert(a == 0 || c / a == b);\n\n        return c;\n    }\n\n\n    function div(uint256 a, uint256 b) internal pure returns (uint256) {\n        // Solidity automatically throws when dividing by 0\n        uint256 c = a / b;\n\n        // assert(a == b * c + a % b); // There is no case in which this doesn't hold\n        return c;\n    }\n\n\n    function sub(uint256 a, uint256 b) internal pure returns (uint256) {\n        assert(b <= a);\n\n        return a - b;\n    }\n\n\n    function add(uint256 a, uint256 b) internal pure returns (uint256) {\n        uint256 c = a + b;\n\n        assert(c >= a);\n\n        return c;\n    }\n}\n\n// File: srcContracts/ReliefERC20.sol\n\n/**\n * @title Kerela Relief ERC 20\n * Tweeked version of ERC 20 to help better manage inventory of relief camps\n * @author Harsh Patel / harsh.patel54@gmail.com\n */\ncontract ReliefERC20 is Ownable{\n\n  using SafeMath for uint256;\n\n  struct userDetail{\n    string name;\n    string contactDetail;\n    string location;\n    uint256 no;\n    bool state;\n  }\n\n  struct itemDetail{\n    string itemName;\n    string itemDescription;\n    bool state;\n    bool isCentral;\n  }\n\n  uint256 noItems;\n  uint256 noDist;\n  uint256 noUser;\n\n  mapping (uint256 => bytes32 ) public coutUsermap;\n  mapping (uint256 => address ) public coutDistmap;\n  mapping (bytes32 => userDetail ) public user;\n  mapping (address => userDetail ) public dist;\n\n  mapping ( uint256 => itemDetail ) public item;\n  mapping ( address => mapping( uint256 => uint256 ) ) public balanceDist;\n  mapping ( bytes32 => mapping( uint256 => uint256 ) ) public balanceUser;\n\n  modifier isUser( bytes32 _userAddr){\n    require(user[_userAddr].state == true );\n    _;\n  }\n\n  modifier isDist( ){\n    require( (dist[msg.sender].state == true) );\n    _;\n  }\n\n  modifier isValidTransfe( uint256 itemID , uint256 qty ) {\n    require( balanceDist[msg.sender][itemID] >= qty );\n    _;\n  }\n\n  modifier isCentralItem( uint256 itemID ) {\n    require( item[itemID].isCentral == true );\n    _;\n  }\n\n  modifier isnonCentralItem( uint256 itemID ) {\n    require( item[itemID].isCentral == false );\n    _;\n  }\n\n  function addCamp( address _userAddr , string _campName , string _location, string _ContactDetails )\n    onlyOwner\n    public\n  {\n    noDist +=1;\n    coutDistmap[noUser] = _userAddr;\n    dist[_userAddr].name = _campName;\n    dist[_userAddr].contactDetail = _ContactDetails;\n    dist[_userAddr].location = _location;\n    dist[_userAddr].state = true;\n  }\n\n  function addUser( bytes32 _userAddr , string _name , string _location, string _ContactDetails )\n    isDist\n    public\n  {\n    noUser +=1;\n    coutUsermap[noUser] = _userAddr;\n    user[_userAddr].name = _name;\n    user[_userAddr].contactDetail = _ContactDetails;\n    user[_userAddr].location = _location;\n    user[_userAddr].state = true;\n  }\n\n  function addItem( string _item , string _itemDesc , bool _isCentral )\n    onlyOwner\n    public\n  {\n    noItems +=1;\n    item[noItems].itemName = _item;\n    item[noItems].itemDescription = _itemDesc;\n    item[noItems].state = true;\n    item[noItems].isCentral = _isCentral;\n  }\n\n  function removeUser( bytes32 _uid)\n    onlyOwner\n    public\n  {\n    user[_uid].state = false;\n  }\n\n  function mintItemAdmin ( uint256 _itemid , uint256 _distid , uint256 qty )\n    onlyOwner\n    isCentralItem(_itemid)\n    public\n  {\n    balanceDist[coutDistmap[_distid]][_itemid] = qty;\n  }\n\n  function mintItemDist ( uint256 _itemid , uint256 qty )\n    isDist\n    isnonCentralItem(_itemid)\n    public\n  {\n    balanceDist[msg.sender][_itemid] = qty;\n  }\n\n  function transfer ( uint256 _itemid , uint256 qty, uint256 userID )\n    isDist\n    isUser(coutUsermap[userID])\n    public\n  {\n    balanceDist[msg.sender][_itemid] = balanceDist[msg.sender][_itemid].sub(qty);\n    balanceUser[coutUsermap[userID]][_itemid] = balanceUser[coutUsermap[userID]][_itemid].add(qty);\n  }\n\n\n}\n",
  "sourcePath": "/Users/harshpatel/codebase/git/kerelaRescue/contracts/ReliefERC20.sol",
  "compiler": {
    "name": "solc",
    "version": "0.4.24+commit.e67f0147.Emscripten.clang"
  },
  "schemaVersion": "2.0.1",
  "updatedAt": "2018-08-23T10:47:23.702Z"
}